:100000000C94AB0F0C94DC0F0C94DC0F0C94DC0FF5
:100010000C94DC0F0C94DC0F0C94DC0F0C94DC0FB4
:100020000C94DC0F0C94A3720C94A3720C94A37226
:100030000C94DC0F0C94DC0F0C94DC0F0C94DC0F94
:100040000C94DC0F0C947D7E0C94DC0F0C94DC0F74
:100050000C94DC0F0C94DC0F0C94A8740C94597263
:100060000C94DC0F0C94BD7E0C94DC0F0C94DC0F14
:100070000C94DC0F0C94DC0F0C94DC0F0C94DC0F54
:100080000C94DC0F0C94DC0F0C94DC0F0C94DC0F44
:100090000C94DC0F0C94DC0F0C94DC0F0C94DC0F34
:1000A0000C94DC0F0C94DC0F0C94DC0F0C94DC0F24
:1000B0000C94DC0F0C94DC0F0C94DC0F0C94DC0F14
:1000C0000C94DC0F0C94DC0F0C94DC0F0C94DC0F04
:1000D0000C94DC0F0C94DC0F0C94DC0F0C94DC0FF4
:1000E0000C94DC0F084AD73B3BCE016E84BCBFFDAD
:1000F000C12F3D6C74319ABD56833DDA3D00C77FF8
:1001000011BED9E4BB4C3E916BAAAABE0000008090
:100110003F05A84CCDB2D44EB93836A9020C50B91F
:10012000918688083CA6AAAA2ABE000000803F004B
:100130000C9475110C9424140C9497130C94721055
:100140000C9476100C94B0110C9482110C947A10CB
:100150000C9495100C94AF130C940C140C948B10FD
:100160000C9421100C949F100C94DB7F0C94BA110A
:100170000C9481100C94DD110C94B1100C940F129E
:100180000C94A8110C94CE110C9491100C94E711BE
:100190000C94C4110C9405120C9499100C94AC108E
:1001A0000C9444170C94AD100C948C110C94F11118
:1001B0000C94B0130C947E100C9487100C947D1149
:1001C0000C94A7100C94A3100C94FB110C94961192
:1001D0000C94A0110C946C104E414E494E49545948
:1001E000494E46CDCCCC3D0AD7233C17B7D1387702
:1001F000CC2B329595E6241FB14F0A000020410018
:1002000000C84200401C4620BCBE4CCA1B0E5AAE61
:10021000C59D7445340045330045320045310045E5
:1002200030005A32005932005832005A00590058F2
:1002300000434F4D4D554E49434154494F4E0044A4
:10024000525952554E004552524F525300494E4654
:100250004F004543484F002569730025696D2025EF
:100260006973002569682025696D2025697300255B
:100270006964202569682025696D2025697300253A
:10028000697920256964202569682025696D202504
:10029000697300656E7175657565696E672022000A
:1002A0005072696E7465722073746F70706564202B
:1002B00064756520746F206572726F72732E2046AC
:1002C000697820746865206572726F7220616E644F
:1002D00020757365204D39393920746F207265732C
:1002E000746172742E202854656D70657261747526
:1002F00072652069732072657365742E205365746E
:10030000206974206166746572207265737461720D
:1003100074696E67290A004E6F20436865636B73CA
:10032000756D2077697468206C696E65206E756DD7
:100330006265722C204C617374204C696E653A20A2
:1003400000636865636B73756D206D69736D6174AF
:1003500063682C204C617374204C696E653A2000F0
:100360004C696E65204E756D626572206973206EF2
:100370006F74204C617374204C696E65204E756DEE
:100380006265722B312C204C617374204C696E6550
:100390003A20004D3131300020496E76616C69643D
:1003A000206578747275646572200000000000009A
:1003B0000000000000000000007A430000794300C4
:1003C000009B43206E6F7420656E74657265642EA9
:1003D0000A0050726F7465637465642050696E0A18
:1003E0000020573A0020573A00205A3A0020423A5B
:1003F0000020436F756E7420413A0020453A00207A
:100400005A3A0020593A00583A003A004361703A8B
:1004100000426564204C6576656C696E6720004615
:1004200061696C656420746F20656E61626C652023
:10043000426564204C6576656C696E670A004D659F
:10044000736820426564204C6576656C2064617435
:10045000613A0A004D65736820706F696E7420639D
:10046000616E6E6F74206265207265736F6C766565
:10047000640A004D34323120696E636F72726563B5
:100480007420706172616D65746572207573616747
:10049000650A00526573656E643A200020746F6FC0
:1004A000206C6F6E6720657874727573696F6E204B
:1004B00070726576656E7465640A0020636F6C64A3
:1004C00020657874727573696F6E207072657665D9
:1004D0006E7465640A00627573793A207061757391
:1004E000656420666F7220696E7075740A006275AB
:1004F00073793A2070617573656420666F72207538
:100500007365720A00627573793A2070726F636561
:100510007373696E670A004B494C4C2063617573B5
:10052000656420627920746F6F206D75636820693F
:100530006E6163746976652074696D65202D206332
:10054000757272656E7420636F6D6D616E643A20B2
:10055000002020506C616E6E657242756666657231
:1005600042797465733A20002046726565204D65B6
:100570006D6F72793A2000436F6D70696C65643AF3
:100580002053657020203120323032320A00207C26
:1005900020417574686F723A20467261636B7461B2
:1005A0006C20576F726B730A00323032322D303844
:1005B0002D32362031353A303200204C61737420B0
:1005C000557064617465643A20004275696C643AE0
:1005D000204A313852455F3232303832365F313559
:1005E00030325F48410A00467261636B74616C206F
:1005F000576F726B73204A756C696120457874651A
:100600006E6465640A00312E312E390A004D617224
:100610006C696E0020536F66747761726520526555
:100620007365740A00205761746368646F672052B1
:10063000657365740A002042726F776E206F75745F
:100640002052657365740A002045787465726E6186
:100650006C2052657365740A00506F77657255702F
:100660000A0073746172740A00206472697665729C
:100670002063757272656E743A2000000048420073
:100680000048420000A041000000005761726E69FE
:100690006E673A20486F6D696E672042756D7020F5
:1006A00044697669736F72203C20310A00020204AB
:1006B0000000A0400000A0400000004000007A437D
:1006C0000000794300009B436F6B004572726F72AC
:1006D0002077726974696E6720746F2045455052A7
:1006E0004F4D210A00454550524F4D2064617461C1
:1006F00073697A65206572726F722E0A00290A008A
:100700002062797465733B206372632000536574C3
:1007100074696E67732053746F72656420280029B2
:100720000A002062797465733B20637263200020A5
:1007300073746F7265642073657474696E67732077
:10074000726574726965766564202800202863618B
:100750006C63756C6174656429210A0020213D2059
:1007600000454550524F4D20435243206D69736DF3
:1007700061746368202D202873746F72656429206A
:10078000002053697A653A2000496E6465783A2002
:1007900000204D61726C696E3D563535290A00287E
:1007A000454550524F4D3D00454550524F4D2076E6
:1007B000657273696F6E206D69736D617463682013
:1007C0000048617264636F646564204465666175A6
:1007D0006C742053657474696E6773204C6F616428
:1007E00065640A00DC050000DC0500003200000042
:1007F0001027000000004843000048430000A041CB
:10080000000034420000A0420000A042F0F7FB4389
:1008100000000C4320204D3930360020286D6D2912
:1008200000205430204500205A0020590020580054
:1008300053746570706572206472697665722063A6
:10084000757272656E743A0A0020440020490020D7
:10085000204D33303120500050494420736574746A
:10086000696E67733A0A00205A0020590020204719
:10087000323920533320580020204D343230205359
:10088000004D65736820426564204C6576656C692F
:100890006E673A0A00205A0020590020204D32305D
:1008A00036205800486F6D65206F66667365743A30
:1008B0000A00204A0020540020530020204D3230EE
:1008C00035204200204A3C6A756E635F6465763E5F
:1008D00000416476616E6365643A20423C6D696EE6
:1008E0005F7365676D656E745F74696D655F757361
:1008F0003E20533C6D696E5F666565647261746528
:100900003E20543C6D696E5F74726176656C5F6603
:10091000656564726174653E0020540020520020B9
:10092000204D323034205000416363656C65726144
:1009300074696F6E2028756E6974732F7332293A4B
:1009400020503C7072696E745F616363656C3E2019
:10095000523C726574726163745F616363656C3E7F
:1009600020543C74726176656C5F616363656C3EB4
:100970000A00204500205A0020590020204D323026
:10098000312058004D6178696D756D204163636554
:100990006C65726174696F6E2028756E6974732F4F
:1009A0007332293A0A00204500205A0020590020BD
:1009B000204D3230332058004D6178696D756D20BF
:1009C0006665656472617465732028756E697473F9
:1009D0002F73293A0A00204500205A002059002090
:1009E000204D393220580053746570732070657241
:1009F00020756E69743A0A0020204D323030204450
:100A0000300A0020204D32303020440020446973E9
:100A100061626C65640A0046696C616D656E742084
:100A200073657474696E67733A0020204732312011
:100A30002020203B007A5F6D61783A2000795F6D5D
:100A400061783A2000785F6D696E3A2000526570D7
:100A50006F7274696E6720656E6473746F70207353
:100A600074617475730A000A4D656173757265640B
:100A700020706F696E74733A0A005A206F6666734D
:100A800065743A20004E756D20582C593A20332C4D
:100A9000330A000000000100000001000080005542
:100AA0005555000000400033333300AAAA2A0049FC
:100AB00092240000002000C7711C0099991900D1F0
:100AC000451700555515003BB1130024491200117C
:100AD000111100000010000F0F0F00E3380E00434B
:100AE000790D00CCCC0C00C3300C00E8A20B0064E4
:100AF000210B00AAAA0A00703D0A009DD8090042F5
:100B00007B090092240900DCD308008888080010C3
:100B100042080000000800F0C10700878707007541
:100B2000500700711C07003EEB0600A1BC060069DF
:100B300090060066660600703E0600611806001703
:100B4000F4050074D105005BB00500B290050062A9
:100B50007205005555050078390500B81E050005D9
:100B60000505004EEC040087D40400A1BD040090EC
:100B7000A7040049920400C17D0400EE690400C787
:100B8000560400444404005C32040008210400417F
:100B9000100400000004003FF00300F8E00300260A
:100BA000D20300C3C30300CCB503003AA803000A74
:100BB0009B0300388E0300C08103009F750300D0A3
:100BC000690300505E03001D530300344803009185
:100BD0003D03003333030016290300381F03009739
:100BE000150300300C0300030303000BFA02004955
:100BF000F10200BAE802005CE002002DD802002DEC
:100C0000D0020059C80200B0C0020031B90200DAB7
:100C1000B10200AAAA0200A0A30200BC9C0200FA32
:100C20009502005C8F0200DF88020082820200458C
:100C30007C02002776020027700200436A02007CD3
:100C4000640200D05E02003F590200C85302002037
:100C5000746F6F206C6F6E6720657874727573693E
:100C60006F6E2070726576656E7465640A0020632D
:100C70006F6C6420657874727573696F6E20707222
:100C80006576656E7465640A00FFFDFCFAF8F6F49B
:100C9000F2F0EEECEAE9E7E5E3E1E0DEDCDAD9D711
:100CA000D5D4D2D0CFCDCBCAC8C7C5C3C2C0BFBDB3
:100CB000BCBAB9B7B6B4B3B2B0AFADACAAA9A8A626
:100CC000A5A4A2A1A09E9D9C9A9998979594939271
:100CD000908F8E8D8B8A8988878684838281807F9E
:100CE0007E7D7B7A797877767574737271706F6EAA
:100CF0006D6C6B6A696867666564636261605F5E9C
:100D00005D5C5B5A59585857565554535251505080
:100D10004F4E4D4C4B4A4A4948474646454443424C
:100D20004241403F3E3E3D3C3B3B3A393838373606
:100D30003535343332323130302F2E2E2D2C2B2BB3
:100D40002A29292827272625252423232221212053
:100D5000201F1E1E1D1C1C1B1B1A191918181716E4
:100D600016151514131312121111100F0F0E0E0D6C
:100D70000D0C0C0B0A0A09090808070706060505E9
:100D800004040303020201000046696C616D656E94
:100D90007420757365643A200053746174733A204B
:100DA000002C204C6F6E67657374206A6F623A2066
:100DB00000546F74616C2074696D653A200053743F
:100DC0006174733A20002C204661696C65643A2096
:100DD000002C2046696E69736865643A2000507281
:100DE000696E74733A200053746174733A2000245E
:100DF000F4D43050C38E20C2A24017828B701112DF
:100E00007A910D816CD90AA861E108C7586607611B
:100E10005143061E4B5D05C145A7041A4111040943
:100E20003D9803713931034036DB0265339102D4BA
:100E3000305402802E1D02632CEE01752AC501B0CC
:100E400028A001102781018F2564012B244B01E08C
:100E5000223401AC211F018D200D01801FFC008474
:100E60001EED00971DDF00B81CD200E61BC6002057
:100E70001BBC00641AB200B219A8000A19A0006ACB
:100E8000189900D117910040178B00B516840031D6
:100E9000167E00B31579003A157300C7146F005819
:100EA000146A00EE1366008813630025135E00C702
:100EB000125B006C12570015125400C111510070E2
:100EC000114F0021114B00D61049008D10470046EC
:100ED00010440002104200C00F4000800F3E00424C
:100EE0000F3C00060F3B00CB0E3800930E37005C22
:100EF0000E3500270E3400F30D3200C10D31009085
:100F00000D3000600D2E00320D2D00050D2C00D986
:100F10000C2B00AE0C2900850C29005C0C27003539
:100F20000C27000E0C2600E80B2400C40B2400A0A4
:100F30000B23007D0B23005A0B2100390B210018D5
:100F40000B2000F80A1F00D90A1E00BB0A1E009DD4
:100F50000A1D00800A1D00630A1C00470A1B002CA2
:100F60000A1B00110A1A00F7091A00DD091900C44A
:100F7000091900AB091900920917007B09180063D1
:100F80000917004C09160036091600200916000A38
:100F9000091500F5081500E0081400CC081400B885
:100FA000081400A4081400900813007D0812006BB8
:100FB00008130058081200460812003408110023D4
:100FC0000811001208110001081100F0071000E0DC
:100FD000071000D0071000C0071000B0070F00A1D5
:100FE00007100091070E0083070F0074070F0065BC
:100FF000070E0057070E0049070E003B070D002E95
:10100000070E0020070D0013070D0006070D00F95D
:10101000060C00ED060D00E0060C00D4060C00C81E
:10102000060C00BC060C00B0060C00A4060B0099D0
:10103000060C008D060B0082060B0077060B006C79
:10104000060B0061060A0057060B004C060A004218
:10105000060A0038060A002E060A0024060A001AAC
:10106000060A001006090007060A00FD050900F43B
:10107000050900EB050900E2050900D9050900D0C2
:10108000050900C7050900BE050900B5050800AD42
:10109000050800A50509009C050800940508008CBA
:1010A000050800840508007C050800740508006C2C
:1010B000050700650508005D050700560508004E98
:1010C00005070047050700400508003805070031FF
:1010D0000507002A050700230507001C0506001662
:1010E0000507000F0507000805060002050700FBBD
:1010F000040600F5040700EE040600E8040600E21A
:10110000040700DB040600D5040600CF040600C96E
:10111000040600C3040600BD040600B7040600B1BF
:10112000040500AC040600A6040600A00405009B0C
:1011300004060095040500900406008A0405008555
:10114000040500800406007A04050075040500709B
:101150000405006B04050066040500610405005CDD
:1011600004050057040500520405004D040500481D
:10117000040500430405003E0404003A040500355C
:10118000040500300404002C040500270404002397
:101190000405001E0404001A0404001604050011CE
:1011A0000404000D04040009040500040404000004
:1011B000040400FC030400F8030400F4030400F03A
:1011C000030400EC030400E8030400E4030400E06B
:1011D000030400DC030400D8030400D4030400D09B
:1011E000030400CC030400C8030300C50303002468
:1011F000F404D9201BC40C5C0E9804C4095F02657A
:10120000077101F405F900FB04B30048048700C12D
:101210000369005803550003034500BE023A0084E9
:1012200002310053022A002902250004022000E4B2
:10123000011C00C8011900AF0117009801140084B7
:10124000011300710110006101100051010E0043F3
:10125000010D0036010B002B010B0020010B0015C6
:101260000109000C01090003010800FB000800F35C
:10127000000800EB000700E4000600DE000600D8CE
:10128000000600D2000600CC000500C7000500C221
:10129000000500BD000400B9000400B5000400B161
:1012A000000400AD000400A9000400A5000300A292
:1012B0000003009F0004009B0003009800030095BA
:1012C00000020093000300900003008D0002008BD9
:1012D00000030088000200860002008400030081F1
:1012E0000002007F0002007D0002007B0002007906
:1012F0000002007700010076000200740002007214
:10130000000100710002006F0002006D0001006C1E
:101310000002006A00010069000200670001006627
:10132000000100650001006400020062000100612C
:10133000000100600001005F0002005D0001005C30
:101340000001005B0001005A000100590001005833
:101350000001005700010056000100550001005433
:101360000001005300000053000100520001005131
:10137000000100500001004F0001004E0000004E2F
:101380000001004D0001004C0001004B0000004B2B
:101390000001004A00010049000100480000004827
:1013A0000001004700010046000000460001004522
:1013B000000000450001004400010043000000431C
:1013C0000001004200000042000100410000004115
:1013D000000100400001003F0000003F0001003E0E
:1013E0000000003E0001003D0000003D0001003C07
:1013F0000000003C0000003C0001003B0000003BFE
:101400000001003A0000003A0001003900000039F4
:1014100000010038000000380000003800010037EB
:1014200000000037000100360000003600000036E2
:1014300000010035000000350000003500010034D7
:1014400000000034000000340001003300000033CD
:1014500000000033000100320000003200000032C2
:1014600000010031000000310000003100010030B7
:1014700000000030000000300001002F0000002FAD
:101480000000002F0000002F0001002E0000002EA1
:101490000000002E0001002D0000002D0000002D96
:1014A0000000002D0001002C0000002C0000002C8A
:1014B0000000002C0001002B0000002B0000002B7E
:1014C0000000002B0001002A0000002A0000002A72
:1014D0000000002A00010029000000290000002966
:1014E0000000002900000029000100280000002859
:1014F000000000280000002800000028000100274C
:10150000000000270000002700000027000000273F
:101510000001002600000026000000260000002632
:101520000000002600010025000000250000002525
:101530000000002500000025000000250001002417
:10154000000000240000002400000024000000240B
:1015500000010023000000230000002300000023FE
:1015600000000023000000230000002300010022EF
:1015700000000022000000220000002200000022E3
:1015800000000022000100210000002100000021D5
:1015900000000021000000210000002100000021C7
:1015A00000010020000000200000002000000020BA
:1015B00000000020000000200000002000000020AB
:1015C0000001001F0000001F0000001F0000001F9E
:1015D0000000001F0000001F0000001F0001001E8F
:1015E0000000001E0000001E0000001E0000003968
:1015F0003000003325000087190000B00F0000DB29
:10160000080000BD040000740200003F0100002338
:10161000646566696E652044454641554C545F4B90
:1016200064200023646566696E6520444546415523
:101630004C545F4B69200023646566696E652044E5
:10164000454641554C545F4B702000504944204161
:1016500075746F74756E652066696E69736865640C
:10166000212050757420746865206C617374204B60
:10167000702C204B6920616E64204B6420636F6E78
:101680007374616E74732066726F6D2062656C6F27
:101690007720696E746F20436F6E6669677572613B
:1016A00074696F6E2E680A00504944204175746F4A
:1016B00074756E65206661696C6564212074696D5E
:1016C000656F75740A00453120544845524D414CB0
:1016D0002052554E4157415900546865726D616CF6
:1016E0002052756E617761790045312048656174DB
:1016F000696E67206661696C65640048656174693C
:101700006E67206661696C656400504944204175CC
:10171000746F74756E65206661696C656421205410
:10172000656D706572617475726520746F6F206885
:101730006967680A00204B643A2000204B693A2010
:1017400000204B703A20000A20436C617373696378
:1017500020504944200A002054753A2000204B753F
:101760003A2000206D61783A2000206D696E3A20A1
:101770000020643A200020626961733A20005049D9
:1017800044204175746F74756E6520737461727452
:101790000A00504944204175746F74756E65206667
:1017A00061696C656421204261642065787472759A
:1017B000646572206E756D6265720A006265640A06
:1017C000002C2073797374656D2073746F7070656D
:1017D0006421204865617465725F49443A20004283
:1017E00065642068656174696E67206661696C650F
:1017F000640048656174696E67206661696C656440
:101800000045312048656174696E67206661696CC6
:1018100065640048656174696E67206661696C651E
:1018200064001000600350012C0190012201D001DE
:10183000180110020E0170020401E002FA006003B8
:10184000F0000004E600B004DC00A005D200B00601
:10185000C8000008BE00A009B400800BAA00D00D8B
:10186000A00090109600C0138C0070178200901B8F
:10187000780010206E00C0246400E02D50008035F8
:101880003C00A03A2800A03D1400003F0000A03F0B
:10189000ECFF4531204572723A204D415854454D78
:1018A00050004572723A204D415854454D502042E7
:1018B0004544004D415854454D5020747269676746
:1018C00065726564004531204572723A204D494E7B
:1018D00054454D50004572723A204D494E54454D85
:1018E0005020424544004D494E54454D502074729D
:1018F0006967676572656400202F002042403A00E6
:1019000020403A002F022D022B022802250222023B
:101910001F021C021902160213027472756500661A
:10192000616C7365002074656D70657261747572A9
:1019300065207072657761726E2074726967676581
:101940007265643A2000207072657761726E20665D
:101950006C616720636C65617265640A0000002138
:1019600000240027002A002D003000330001010070
:1019700000040107010A0100000A0B02090C0D0E08
:101980000807030401000000000000000000000040
:101990000000000000000000000000000000000047
:1019A0000000001211100000000000000000000004
:1019B0000000000000000000000000000047322F7F
:1019C00047332062616420706172616D6574657275
:1019D000730A00206F6620004D424C2047323920A8
:1019E000706F696E74200059206F7574206F6620C7
:1019F00072616E67652028312D33292E0A00582028
:101A00006F7574206F662072616E67652028312DB6
:101A100033292E0A004D6573682070726F62696EFB
:101A20006720646F6E652E0A005374617274206DB6
:101A30006573682070726F62696E67207769746879
:101A40002022473239205331222066697273742E66
:101A50000A00473239205332004D657368206265B1
:101A600064206C6576656C696E6720686173206EB2
:101A70006F20646174612E0A0053746174653A20AA
:101A80000053206F7574206F662072616E67652049
:101A900028302D35292E0A004D65736820706F6936
:101AA0006E742063616E6E6F742062652072657360
:101AB0006F6C7665640A005072696E742074696D8B
:101AC000653A20006F66660052024D0246023F02F0
:101AD000310244454255473A004D313133205300DD
:101AE0006F6B00544845524D414C5F50524F544526
:101AF0004354494F4E004155544F5245504F525454
:101B00005F53445F53544154555300454D4552472C
:101B1000454E43595F50415253455200434153454E
:101B20005F4C494748545F4252494748544E4553D9
:101B30005300544F47474C455F4C49474854530066
:101B4000534F4654574152455F504F5745520042FC
:101B500055494C445F50455243454E54004C455600
:101B6000454C494E475F44415441005A5F50524FE3
:101B70004245004155544F4C4556454C0050524942
:101B80004E545F4A4F420050524F47524553530004
:101B90004155544F5245504F52545F54454D50009B
:101BA000564F4C554D455452494300454550524FB0
:101BB0004D0053455249414C5F584F4E5F584F4678
:101BC00046004649524D574152455F4E414D453AB8
:101BD0004D61726C696E204A313852455F32323045
:101BE0003832365F313530325F484120534F5552DD
:101BF00043455F434F44455F55524C3A6874747097
:101C0000733A2F2F6769746875622E636F6D2F6149
:101C1000686172736861632F46574A756C696132F7
:101C20003031384D61726C696E2050524F544F43C1
:101C30004F4C5F56455253494F4E3A312E30204D4E
:101C4000414348494E455F545950453A4A756C697D
:101C50006120457874656E6465642045585452551A
:101C60004445525F434F554E543A312055554944EF
:101C70003A38626561313437342D373130622D3472
:101C80006239302D386135302D3832333765616136
:101C900065633530660A002F2F2000205400205243
:101CA00000416363656C65726174696F6E3A2050C0
:101CB000003F4A206F7574206F662072616E676501
:101CC0002028302E303120746F20302E33290A0026
:101CD000000020C10000794300009B43546F6F2037
:101CE0006661722066726F6D207265666572656EE0
:101CF000636520706F696E740A00FF0101205A004D
:101D0000205900580020204D61783A2000205A00C8
:101D1000205900580020204D696E3A20004F6E2057
:101D2000004F666600536F667420656E6473746F4F
:101D300070733A200020466C6F773A20000001361D
:101D4000372603FFFFFF3F3C3D38FF0FFFFF402ECC
:101D5000303EFF13FFFFFF41FF0C0809FFFFFF1A92
:101D60001C18FFFF4208440AFF43496E76616C6904
:101D7000642065787472756465720A0020643A00A4
:101D800020693A0020703A0043290A0061626C65BC
:101D90006420286D696E2074656D702000436F6C3F
:101DA00064206578747275646573206172652000C3
:101DB0004E6F2063617365206C696768740A004523
:101DC0004550524F4D204F4B0A0041637469766570
:101DD0002045787472756465723A2000496E7661A8
:101DE0006C69642065787472756465720A00205AA3
:101DF0003A0020593A0020583A00656E6473746FB7
:101E00007073206869743A200000002000230026C7
:101E10000029002C002F0032000001000003010601
:101E200001090100002200250028002B002E0031AE
:101E300000340002010000050108010B0105050541
:101E400005070508080808020202020A0A08080431
:101E5000040404010101010101010103030303035F
:101E6000030303040707070C0C0C0C0C0C0C0C02EE
:101E700002020206060606060606060B0B0B0B0BF5
:101E80000B0B0B01021020200808102040102040EE
:101E9000800201020108040201010204081020402E
:101EA000808040201008040201800402018040204C
:101EB0001008040201080402010102040810204075
:101EC000800102040810204080556E6B6E6F776EA3
:101ED00020636F6D6D616E643A2022002066697226
:101EE00073740A005A0059005800486F6D6520004D
:101EF0006563686F3A00453120544845524D414C66
:101F00002052554E415741590042454420544845BE
:101F1000524D414C2052554E41574159005468652D
:101F2000726D616C2052756E6177617900507269D3
:101F30006E7465722068616C7465642E206B696CC8
:101F40006C28292063616C6C6564210A00457272FB
:101F50006F723A00DB7F11241FBECFEFD1E2DEBFEC
:101F6000CDBF00E00CBF13E0A0E0B2E0EEE6F4E489
:101F700001E00BBF02C007900D92AC31B107D9F759
:101F80002FE0ACE1B3E001C01D92A53CB207E1F740
:101F90001FE0CBEADFE000E006C021970109802FB7
:101FA000FE010E94AAA1CA3AD10780E00807A9F75A
:101FB0000E944D800C9435A20C940000FC01DB01C2
:101FC0008C9120813181382798E0A901220F331F9D
:101FD00057FD05C09150C9F7318320830895B1E2C0
:101FE0002B27B0E13B27F6CF0F931F93CF93DF93BF
:101FF000582FFC0180E077E0919148E0282F30E0F5
:10200000A92FB0E08901000F012F001F110B917063
:10201000C92F90E0D92F880F0C171D0721F0C90197
:10202000880F991F8727B595A7959A2F415031F7AB
:102030009E2F951B961700F3DF91CF911F910F9163
:102040000895AF92BF92CF92DF92EF92FF920F93DB
:102050001F93CF93DF936C017B018B01040F151F3E
:10206000EB015E01AE18BF08C017D10759F06991A6
:10207000D601ED91FC910190F081E02DC6011995FA
:10208000892B79F7C501DF91CF911F910F91FF90B7
:10209000EF90DF90CF90BF90AF9008958150823144
:1020A00008F05AC0E82FF0E08827E65AFF4E8F4F1D
:1020B0000C94AAA17A107E106C1072107610AC10DD
:1020C000811087108B109110951099109F10A310FC
:1020D000AC10A710AD10B110809180008F77809365
:1020E00080000895809180008F7DF9CF80918000DD
:1020F000877FF5CF84B58F7784BD089584B58F7DB4
:10210000FBCF8091B0008F778093B00008958091CD
:10211000B0008F7DF9CF809190008F7780939000F1
:102120000895809190008F7DF9CF80919000877FF6
:10213000F5CF8091A0008F778093A00008958091C3
:10214000A0008F7DF9CF8091A000877FF5CF80918F
:1021500020018F77809320010895809120018F7D49
:10216000F9CF80912001877FF5CFCF93DF93282F80
:1021700030E0F901E958F64E8491F901ED57F14E3E
:10218000D491F901E35CF14EC491CC23A1F081110B
:102190000E944E10EC2FF0E0EE0FFF1FE75FF14EB4
:1021A000A591B491EC91ED2381E090E009F480E0F9
:1021B000DF91CF91089580E090E0FACF1F93CF9305
:1021C000DF93282F30E0F901E958F64E8491F901A8
:1021D000ED57F14ED491F901E35CF14EC491CC235B
:1021E000A9F0162F81110E944E10EC2FF0E0EE0F97
:1021F000FF1FED5DF14EA591B4918FB7F894EC916E
:10220000111108C0D095DE23DC938FBFDF91CF91F1
:102210001F910895DE2BF8CFCF93DF9390E0FC0160
:10222000ED57F14E2491835C914EFC0184918823FB
:10223000D1F090E0880F991FFC01E35AF64EA5916A
:10224000B491FC01ED5DF14EC591D49161110EC0C8
:102250009FB7F8948C91E22FE0958E238C93288180
:10226000E223E8839FBFDF91CF9108958FB7F89461
:10227000EC91E22BEC938FBFF6CF1F93CF93DF93BC
:10228000182FEB0161E00E940C11209739F460E0F7
:10229000812FDF91CF911F910C94DE10CF3FD1059C
:1022A00011F461E0F5CFE12FF0E0E958F64EE4914A
:1022B000E150E23108F0B3C0F0E08827ED59FE4E5E
:1022C0008F4F0C94AAA175117D1182118C1196115A
:1022D0000F12A011A811B011BA11C411CE11DD1145
:1022E000E7110F12F111FB11051284B5806884BD4E
:1022F000C7BDDF91CF911F91089584B5806284BDE1
:10230000C8BDF7CF80918000806880938000D09313
:102310008900C0938800EDCF809180008062809317
:102320008000D0938B00C0938A00E3CF809180001F
:10233000886080938000D0938D00C0938C00D9CFAB
:102340008091B00080688093B000C093B300D1CF7B
:102350008091B00080628093B000C093B400C9CF78
:1023600080919000806880939000D0939900C093F2
:102370009800BFCF80919000806280939000D093AE
:102380009B00C0939A00B5CF8091900088608093A5
:102390009000D0939D00C0939C00ABCF8091A00093
:1023A00080688093A0008091A0008F7B8093A00024
:1023B000D093A900C093A8009CCF8091A000806218
:1023C0008093A000D093AB00C093AA0092CF8091DD
:1023D000A00088608093A000D093AD00C093AC00B3
:1023E00088CF80912001806880932001D0932901BB
:1023F000C09328017ECF80912001806280932001CC
:10240000D0932B01C0932A0174CF80912001886062
:1024100080932001D0932D01C0932C016ACFC03846
:10242000D1050CF03ECF33CF789484B5826084BD63
:1024300084B5816084BD85B5826085BD85B58160C8
:1024400085BDEEE6F0E0808181608083E1E8F0E028
:102450001082808182608083808181608083E0E857
:10246000F0E0808181608083E1EBF0E08081846036
:102470008083E0EBF0E0808181608083E1E9F0E03F
:10248000808182608083808181608083E0E9F0E0E8
:10249000808181608083E1EAF0E0808182608083D6
:1024A000808181608083E0EAF0E0808181608083C8
:1024B000E1E2F1E0808182608083808181608083BD
:1024C000E0E2F1E0808181608083EAE7F0E08081F2
:1024D000846080838081826080838081816080834A
:1024E0008081806880831092C10008953FB7F8947E
:1024F0008091550B9091560BA091570BB091580BB2
:1025000026B5A89B05C02F3F19F00196A11DB11D4E
:102510003FBFBA2FA92F982F8827BC01CD01620F8A
:10252000711D811D911D42E0660F771F881F991F45
:102530004A95D1F708958F929F92AF92BF92CF9212
:10254000DF92EF92FF926B017C010E9476124B01A9
:102550005C01C114D104E104F104B9F00E947612C7
:10256000681979098A099B09683E734081059105BC
:1025700080F321E0C21AD108E108F10888EE880E44
:1025800083E0981EA11CB11CE4CFFF90EF90DF9078
:10259000CF90BF90AF909F908F900895CF92DF9291
:1025A000EF92FF920F931F93CF93DF9300D000D051
:1025B0001F921F92CDB7DEB77C018E010F5F1F4FB8
:1025C00088E0D8011D928A95E9F785E089836B83BD
:1025D0005C834D833E832F8367E0C8010E94F40F24
:1025E0008887F70185899E01275F3F4F690188230E
:1025F00079F1D70153968D919C91F80161918F01EA
:10260000DC01ED91FC910190F081E02D1995F7012D
:1026100020813181820F931F91838083C016D10660
:1026200041F7D70116966D917C9190E080E00E9471
:102630009B1228960FB6F894DEBF0FBECDBFDF9178
:10264000CF911F910F91FF90EF90DF90CF90089561
:10265000D70151968D919C91F80161918F01DC0118
:10266000ED91FC910190F081E02D1995F701208109
:102670003181820F931F918380830C151D0541F7D3
:10268000D0CF2FB7F8946091510B7091520B80917D
:10269000530B9091540B2FBF0895CF92DF92EF927E
:1026A000FF92C090460ED090470EE090480EF090FA
:1026B000490E6091440E7091450E67507109072EC6
:1026C000000C880B990B0E94E8999B01AC01C70193
:1026D000B6010E94E19987FF21C020E030E040E090
:1026E00050E4C701B6010E94439E0E94B69F7093BA
:1026F000430E6093420E0E94411360547B428E4F02
:102700009F4F60933E0E70933F0E8093400E9093C8
:10271000410EFF90EF90DF90CF90089510923E0E03
:1027200010923F0E1092400E1092410EF2CF209167
:102730004E0B30914F0B2817390771F490914D0BC8
:1027400080914C0B981741F0E0914D0BF0E0E45F65
:10275000F44F808190E008958FEF9FEF08950895E2
:10276000EF92FF920F931F93CF93DF93DC015C9660
:10277000ED90FC905D97E114F10479F481E090E034
:1027800013969C938E93129790E080E0DF91CF9107
:102790001F910F91FF90EF9008955196ED91FC914C
:1027A000529750968C915097982F90950FB75E96B0
:1027B0002C915E97122F127021FD6095F894208164
:1027C000112319F1282B2083E7012197F1F728E045
:1027D000462F50E0308160FF1AC0382B3083E7016C
:1027E0002197F1F7BA0175956795215089F7112363
:1027F00081F08081892380830FBF5C968D919C91AD
:102800000197F1F781E090E0C1CF2923DCCF392394
:10281000E5CF9081892BEFCF20914E0B30914F0B5C
:102820002817390771F480914C0B20914D0B90E0E3
:10283000805C9F4F821B910960E470E00E9477A149
:10284000089590E080E0089520914E0B30914F0B59
:1028500028173907B9F490914D0B80914C0B9817BC
:1028600089F0E0914D0BF0E0E45FF44F808120911E
:102870004D0B30E02F5F3F4F2F73332720934D0BCD
:1028800090E008958FEF9FEF0895CF93DF93FC01C1
:10289000828D938D892B41F1A0914E0BB0914F0BFE
:1028A000AE17BF0709F1109751F05396CD91DC9107
:1028B0005497988155968C91809589238883868D2D
:1028C0008E7F868F10924C0B10924D0BF0934F0B16
:1028D000E0934E0BA389B4898C919589892B8C93B5
:1028E00081E0DF91CF91089580E0FBCF2F923F925E
:1028F0004F925F926F927F928F929F92AF92BF9210
:10290000CF92DF92EF92FF920F931F93CF93DF93BB
:10291000CDB7DEB72C970FB6F894DEBF0FBECDBF94
:102920007C011B018EEA97E4A1EEBDE3F7018283EF
:102930009383A483B58390E080E00E94E69925ED1F
:1029400034E045E352E40E94479A20E030E04AE751
:1029500054E40E943D9F4B015C0128EB3EE145E0C1
:102960005EE30E94479A26E636E646EA5EE30E9468
:102970003D9F20E030E040E85FE30E94429E0E94DD
:10298000B69F462EFFE0F61708F489C0F701FE96C1
:10299000208131814281538142602083318342838F
:1029A00053836CEEC7010E94CE122AE037ED43EA52
:1029B0005CE3D70112966D917D918D919C91159755
:1029C0000E94439EA50194010E94479A2CEE31E596
:1029D00048E35EE30E943D9F20E030E040E85FE393
:1029E0000E94429E0E94B69F462EF70126A537A55B
:1029F00040A951A9307E842D90E0B0E0A0E0BA2F2C
:102A0000A92F982F882788279F71AA27BB27282BB3
:102A1000392B4A2B5B2B26A737A740AB51AB60E97C
:102A2000C7010E94CE12642D70E090E080E00E9409
:102A3000E89920E030E040E05FE30E94479A0E947E
:102A4000B69F6F71F70126A537A540A951A9207E31
:102A5000262B26A737A740AB51AB60E9C7010E94E0
:102A6000CE12F701E55BFF4F318220822C960FB624
:102A7000F894DEBF0FBECDBFDF91CF911F910F91B4
:102A8000FF90EF90DF90CF90BF90AF909F908F908E
:102A90007F906F905F904F903F902F900895F70137
:102AA000E65BFF4F808181114BC119861A861B8618
:102AB0001C8685E089878CE68B8763E0CE010996CA
:102AC0000E94F40F8C87F7018589882309F475C06B
:102AD000838994890E944514D70116966D907C9045
:102AE000179753968D909C90D401ED91FC910084A2
:102AF000F185E02DC4011995181619064CF4D4017E
:102B0000ED91FC910284F385E02DC4011995ECCF81
:102B1000FE0139965F016E01FDE0CF0ED11CD5019B
:102B20006D915D01D401ED91FC910190F081E02D5A
:102B3000C4011995CA14DB0491F704E010E0D40134
:102B4000ED91FC910284F385E02DC40119950150AB
:102B50001109A9F7B30190E080E00E949B1210E0F8
:102B6000712CA12CB12CC12CD12C512C612CD40155
:102B7000ED91FC910084F185E02DC40119951816A2
:102B800019060CF086C0D401ED91FC910284F38506
:102B9000E02DC4011995E82F212F372DA501B6018D
:102BA000852D962D08E00E94B2A11E2F122B732EA8
:102BB0005A016B01582E692EDACF668077808188A2
:102BC0009288D401ED91FC910084F185E02DC4013F
:102BD0001995181619064CF4D401ED91FC91028454
:102BE000F385E02DC4011995ECCFFE0139965F0104
:102BF0006E01FDE0CF0ED11CD5016D915D01D401B8
:102C0000ED91FC910190F081E02DC4011995CA1459
:102C1000DB0491F704E010E0D401ED91FC91028413
:102C2000F385E02DC401199501501109A9F7B301ED
:102C300090E080E00E949B1210E0712CA12CB12C3E
:102C4000C12CD12C512C612CD401ED91FC9100842C
:102C5000F185E02DC401199518161906D4F4D40194
:102C6000ED91FC910284F385E02DC4011995E82FC4
:102C7000212F372DA501B601852D962D08E00E9444
:102C8000B2A11E2F122B732E5A016B01582E692EE2
:102C9000DBCF212F372DA501B601852D962D08E319
:102CA0000E94CDA12983212F372DA501B601852DA5
:102CB000962D00E30E94CDA12A83212F372DA50157
:102CC000B601852D962D08E20E94CDA12B83212FE0
:102CD000372DA501B601852D962D00E20E94CDA1CC
:102CE0002C83212F372DA501B601852D962D08E1C6
:102CF0000E94CDA12D83212F372DA501B601852D51
:102D0000962D00E10E94CDA12E83212F372DA50104
:102D1000B601852D962D08E00E94CDA1022FB32E7D
:102D20006A012F83188767E0CE0101960E94F40F95
:102D3000181306C0F701FE960083B182C282D382C7
:102D4000F701FE9680819181A281B381A1FF4DCED2
:102D50009C01AD014D7F20833183428353836CEE10
:102D6000C7010E94CE1241CEDC0155962C91559799
:102D7000222309F488C05396ED91FC91138E128E94
:102D8000118E108E178A168A8FE190E0958F848FAE
:102D9000848596EF980F943048F02EEC280F24305D
:102DA00028F022EC280F283008F050C021E030E055
:102DB000378B268B2DE130E0318F208F2DE030E0F6
:102DC000338F228F943050F02EEC280F243030F0C7
:102DD00022EC280FB0E0A0E0283010F4A8E6B0E024
:102DE0002C91943020F032EC380F383090F131E0F3
:102DF000232B943048F09EEC980F943028F08E539B
:102E0000B0E0A0E0883010F4A8E6B0E02C93848510
:102E100096EF980F9430F8F02EEC280F2430D8F06D
:102E200022EC280F2830D0F030E020E0348B238BC8
:102E30009430B8F48650990B91E001C0990F8A95AF
:102E4000EAF7958B848D958D0197F1F7CF010C945E
:102E5000451434E0CDCF2BE630E0E8CF2DE630E06E
:102E6000E5CF98E0823369F394E0833351F392E045
:102E7000843339F392EC980F983018F48E53990BF1
:102E8000DBCF91E0DECF089590E080E008958F924F
:102E90009F92AF92BF92CF92DF92EF92FF920F93E9
:102EA0001F93CF93DF93BCE1A0E06A2F70E0AB01EA
:102EB0004B0F511D559547954A1711F0B41319C082
:102EC000E0E9F8E165917491072E000C880B990BED
:102ED0000E94E899DF91CF911F910F91FF90EF90A1
:102EE000DF90CF90BF90AF909F908F900895B42FB8
:102EF000DECF9A0121503109220F331F220F331FD9
:102F0000F901EE5DF74EE590F490F901EA5DF74EB8
:102F1000C591D4918E159F0554F3A42FC817D907D6
:102F20000CF4C3CFF901EC5DF74E05911491F90152
:102F3000E85DF74EC590D490BC016E197F09072E4D
:102F4000000C880B990B0E94E8994B015C01B601BB
:102F5000601B710B072E000C880B990B0E94E899DF
:102F60009B01AC01C501B4010E94479A4B015C0171
:102F7000BE016E197F09072E000C880B990B0E9469
:102F8000E8999B01AC01C501B4010E943D9F6B0112
:102F90007C01B801110F880B990B0E94E8999B01E5
:102FA000AC01C701B6010E94439E94CFCF92DF923D
:102FB000EF92FF92C090080BD090090BE0900A0BA3
:102FC000F0900B0B6091C40B7091C50B66507109AA
:102FD000072E000C880B990B0E94E899A701960117
:102FE0000E94A3A018160CF520E030E040E050E469
:102FF000C701B6010E94439E0E94B69F7093E90AE2
:103000006093E80A0E9441136058774C8E4F9F4F9F
:103010006093E40A7093E50A8093E60A9093E70AC6
:10302000FF90EF90DF90CF9008951092E40A1092F5
:10303000E50A1092E60A1092E70AF2CF8F929F9269
:10304000AF92BF92CF92DF92EF92FF920F931F93B6
:10305000CF93DF93BCE1A0E06A2F70E0AB014B0F90
:10306000511D55954795A41711F0B41319C0E0E907
:10307000F8E165917491072E000C880B990B0E9462
:10308000E899DF91CF911F910F91FF90EF90DF9022
:10309000CF90BF90AF909F908F900895B42FDECFC8
:1030A0009A0121503109220F331F220F331FF901DA
:1030B000EE5DF74EE590F490F901EA5DF74EC591AB
:1030C000D4918E159F0554F3A42FC817D9070CF47B
:1030D000C3CFF901EC5DF74E05911491F901E85D5C
:1030E000F74EC590D490BC016E197F09072E000CD5
:1030F000880B990B0E94E8994B015C01B601601B9B
:10310000710B072E000C880B990B0E94E8999B010C
:10311000AC01C501B4010E94479A4B015C01BE019C
:103120006E197F09072E000C880B990B0E94E899F5
:103130009B01AC01C501B4010E943D9F6B017C0164
:10314000B801110F880B990B0E94E8999B01AC0103
:10315000C701B6010E94439E94CF0F931F938091A5
:10316000BE0B813019F50E9441130091C20A1091E3
:10317000C30A2091C40A3091C50A601B710B820BEF
:10318000930B28EE33E040E050E00E94069E6091F1
:10319000BE0A7091BF0A8091C00A9091C10A620F65
:1031A000731F841F951F1F910F9108956091BA0B93
:1031B0007091BB0B8091BC0B9091BD0BD6CF109240
:1031C000BE0B1092C20A1092C30A1092C40A109247
:1031D000C50A1092BA0B1092BB0B1092BC0B109246
:1031E000BD0B1092BE0A1092BF0A1092C00A109234
:1031F000C10A08950F931F93CF93DF93C82F809137
:103200006F00D82FD27081FF05C080916F008D7F35
:1032100080936F0060919E0B70919F0B8091A00B2B
:103220009091A10B0091A20B1091A30B2091A40BE4
:103230003091A50BC13039F5601B710B820B930BDC
:103240000E94E89920E030E040E05FE30E94479A66
:103250000E94AF9F24E0C29FF0011124EE54F54F6D
:10326000608371838283938381E08093B10ADD233D
:1032700029F080916F00826080936F00DF91CF9181
:103280001F910F910895600F711F821F931FD8CF58
:1032900090916F00292F227091FF05C090916F00CF
:1032A0009D7F90936F0094E0899FF0011124E25676
:1032B000F44F6081718182819381222329F02091D2
:1032C0006F00226020936F000895BC012091AF0A27
:1032D0003091B00A4091AF0A5091B00A24173507D7
:1032E00031F481E02617370709F080E008959A014C
:1032F000F1CFEF92FF920F931F93E0922903F09288
:103300002A0300932B0310932C0360932D037093D7
:103310002E0380932F039FEFFF27621B730B840BF9
:1033200030F4809570956195790B890B992790936E
:103330002803A6E06A9F00921C03512DEE277A9F76
:10334000500DE11D8A9FE00D50931D03E0931E0375
:10335000AFE06A9F00922003512DEE277A9F500D17
:10336000E11D8A9FE00D50932103E0932203AAE020
:103370006A9F00922403512DEE277A9F500DE11D84
:103380008A9FE00D50932503E09326031F910F9130
:10339000FF90EF90089580916B0A80FF21C089987B
:1033A0008FEF8093670A80916B0A81FF1CC08F9812
:1033B0008FEF8093680A80916B0A82FF17C080911B
:1033C0000B018270809309018FEF8093690A8091CD
:1033D0006B0A83FF13C0169A8FEF80936A0A0895D1
:1033E000899A81E0DECF8F9A81E0E3CF80910B0153
:1033F000809582708093090181E0E7CF169881E083
:10340000ECCF8091810F9091820F891B8F7019F4FE
:1034100090E080E0089590917E0F992351F08330E1
:1034200030F48FEF890F19F080937E0FF1CF109257
:103430007E0F8091820F2DE5829FC0011124895655
:103440009B4FFC01208120FDE3CF2091820F2F5F55
:103450002F7020937F0F3091820F2091800F3213B5
:1034600004C020917F0F2093800F0895CF93C091C7
:10347000BE0B80E0C13069F1C23069F50E94AD1821
:103480006093BE0A7093BF0A8093C00A9093C10AEA
:1034900081E08093BE0B0E9441136093C20A709337
:1034A000C30A8093C40A9093C50AC23089F0809100
:1034B00087049091880401969093880480938704F0
:1034C0001092830410928404109285041092860452
:1034D00081E0CF9108950E94DF18DACF9F92AF92DA
:1034E000BF92CF92DF92EF92FF920F931F93CF93F1
:1034F000DF9300D01F921F92CDB7DEB7E9E8FCE062
:103500000027BB27462F572FA82FAA2341F4A52F0A
:10351000542FB85FAA2319F4A52F5527B85FA031FF
:1035200038F45295A295452F4F70507FA42BBC5F65
:10353000A03428F4550FAA1F550FAA1FBE5FA0384C
:1035400018F4550FAA1FB395550FAA1FEA0FF01FC5
:10355000449151E0AA27B85081F1C8F0B0FF02C0F1
:10356000440F551FB1FF04C0440F551F440F551F92
:10357000B2FF06C052954295142F1F70407F512B09
:10358000B3FF1BC0A52F542F44270C94DD1AB1950F
:10359000B0FF02C055954795B1FF04C055954795BA
:1035A00055954795B2FF05C05295407F4295452BF2
:1035B0005F70B3FF02C0452F5527DD24CC24BB2408
:1035C000B2E0649FD018C108B00AB00B749FC01855
:1035D000B108B00B849FB018B109659FC018B1083D
:1035E000B00B759FB018B109859FB0196A9FB018CC
:1035F000B1097A9FB0194D9DA12C992433279927A1
:1036000022275D9DA00C911C301F901F201FAD9D97
:10361000900C311D901F201F4C9DA00C911C301F41
:10362000901F201F5C9D900C311D901F201FAC9D92
:10363000300D911D201F4B9D900C311D901F201FA0
:103640005B9D300D911D201FAB9D900D211D4B9F4B
:10365000300D911D201F5B9F900D211DAB9F200DF4
:10366000B1E0BB24CC24DD24639FD018C108B00A8C
:10367000B00B739FC018B108B00B839FB018B1098D
:10368000699FC018B108B00B799FB018B109899F24
:10369000B019629FB018B109729FB019D61AC70A43
:1036A000B80A20F0B1E03B0F901F201F1124792FA2
:1036B000632F90E0822F0F900F900F900F900F903C
:1036C000DF91CF911F910F91FF90EF90DF90CF90FE
:1036D000BF90AF909F9008954F925F926F927F92AC
:1036E0008F929F92AF92BF92EF92FF920F931F9390
:1036F000CF93DF93C9EEDBE086E5E82E8CE0F82E71
:1037000000ED1BE0412C512C3201439469917991D9
:1037100089919991F70181909190A190B1907F0149
:103720000E94E699A50194010E94479A0E94B69FC3
:10373000F80161937193819391938F014616570617
:103740006806790610F42B013C01FBE0C93FDF0756
:10375000E9F66FEF7FEFCB01A30192010E94069E75
:1037600020936E0430936F0440937004509371045F
:10377000DF91CF911F910F91FF90EF90BF90AF908D
:103780009F908F907F906F905F904F900895CF9310
:10379000DF9390916F00292F227091FF05C09091C7
:1037A0006F009D7F90936F0094E0899FA00111248A
:1037B000FA01EE54F54F6081718182819381222359
:1037C00029F020916F00226020936F00EA01CE580B
:1037D000DB4F0E94E899288139814A815B810E94F0
:1037E000479ADF91CF910895CF92DF92EF92FF92A7
:1037F0008091E80B882309F457C0C090E40BD09067
:10380000E50BE090E60BF090E70B20E030E0A9013B
:10381000C701B6010E94E199882309F445C020E060
:1038200030E040E05FE3C701B6010E94479A9B0188
:10383000AC010E94479A2BED3FE049E450E40E941E
:10384000479A9B01AC0160E070E080E89FE30E9432
:103850003D9F6B017C01C0924B0CD0924C0CE092CE
:103860004D0CF0924E0C60912D0270912E02072E9D
:10387000000C880B990B0E94E8992AE037ED43E28F
:103880005CE30E94479AA70196010E94479A6093C1
:10389000290270932A0280932B0290932C02FF90AE
:1038A000EF90DF90CF900895C12CD12C80E8E82EC6
:1038B0008FE3F82ED0CF2F923F924F925F926F926C
:1038C0007F928F929F92AF92BF92CF92DF92EF92B0
:1038D000FF920F931F93CF93DF93CDB7DEB760971F
:1038E0000FB6F894DEBF0FBECDBFDC01CD90DD90EA
:1038F000ED90FC90DB018D919D910D90BC91A02DE0
:103900008B839C83AD83BE8320E030E040EA51E4AA
:10391000C701B6010E94429E21EC39E04CE15CE314
:103920000E94479A0E94AF9F16160CF019C161E0E1
:10393000062F660F110B1801BFEF2B1A3B0A20E070
:1039400030E040EA51E46B817C818D819E810E9450
:10395000429E29ED39E84DE15CE30E94479A0E94BE
:10396000AF9F16160CF000C161E0E62F660FFF0B4B
:10397000F88BEF87F801EE0FFF1FEE0FFF1FED54DE
:10398000F04F80809180A280B380B801660F771FCE
:10399000060F171FEF85F889E00FF11FEE0FFF1FCD
:1039A000EE0FFF1FE958F44F408051806280738012
:1039B000F101EE0FFF1FEE0FFF1FED54F04FA501B9
:1039C000940160817181828193810E94429E6F8304
:1039D000788789879A87A5019401C701B6010E945B
:1039E000429E6B017C01C101880F991F280E391E70
:1039F000EF85F889E20DF31DEE0FFF1FEE0FFF1F9D
:103A0000E958F44FA3019201608171818281938111
:103A10000E94429E2F81388549855A850E943D9F8C
:103A2000A70196010E94479AA30192010E94439E1A
:103A30006B877C878D879E878F85988901969A836F
:103A40008983080F191FF801EE0FFF1FEE0FFF1FEC
:103A5000E958F44F80809180A280B380AF85B88907
:103A6000AA0FBB1FAA0FBB1FA955B04F4D905D9069
:103A70006D907C90280E391EF101EE0FFF1FEE0FA6
:103A8000FF1FE958F44FA501940160817181828183
:103A900093810E94429E2F81388549855A850E94D4
:103AA0003D9FA70196010E94479AA50194010E949B
:103AB000439E2B853C854D855E850E94429E6B0111
:103AC0007C01E981FA81EE0FFF1FEE0FFF1FE95520
:103AD000F04FA301920160817181828193810E94E4
:103AE000429E9B01AC01C701B6010E943D9F6B0144
:103AF0007C01A30192016B817C818D819E810E945A
:103B0000429E9B01AC01C701B6010E94479A2B85DA
:103B10003C854D855E850E94439E2091660C3091C8
:103B2000670C4091680C5091690C0E94439E60960E
:103B30000FB6F894DEBF0FBECDBFDF91CF911F91BE
:103B40000F91FF90EF90DF90CF90BF90AF909F903C
:103B50008F907F906F905F904F903F902F9008953F
:103B600067FFE6CE60E0E4CE67FFFFCE60E0FDCE0B
:103B7000CF93DF932091790C222379F0EA010E9400
:103B80005B1C9B01AC01688179818A819B810E94C9
:103B9000439E688379838A839B83DF91CF910895C5
:103BA000CF93DF9380915C04659B4DC081608093CF
:103BB0005C049091030180915C0490FF46C0806298
:103BC00080935C0480915C044A9941C08F7B809310
:103BD0005C04C091A20AC0FF10C080916B0A84FFF0
:103BE0000CC080915C0480FF08C08091090E816048
:103BF0008093090E80E00E94FA18C1FF10C08091E6
:103C00006B0A85FD0CC080915C0485FF08C0809123
:103C1000090E80628093090E81E00E94FA18C2FFAB
:103C200018C080916B0A82FD14C080915C0486FFED
:103C300010C08091090E80648093090E82E0DF91AC
:103C4000CF910C94FA188E7FB2CF8F7DB9CF80645C
:103C5000BECFDF91CF910895CF92DF92EF92FF9286
:103C6000CF93DF93EC01C0903F0CD090400CE090DC
:103C7000410CF090420CA7019601688179818A81FC
:103C80009B810E94E19987FF04C0C882D982EA82A1
:103C9000FB82C090430CD090440CE090450CF09017
:103CA000460CA70196016C817D818E819F810E94C7
:103CB000E19987FF04C0CC82DD82EE82FF82C09052
:103CC0001D02D0901E02E0901F02F0902002A7017A
:103CD0009601688179818A819B810E94A3A0181630
:103CE00024F4C882D982EA82FB82C0902102D0905B
:103CF0002202E0902302F0902402A70196016C8139
:103D00007D818E819F810E94A3A0181624F4CC820D
:103D1000DD82EE82FF82C090470CD090480CE0908C
:103D2000490CF0904A0CA7019601688579858A852F
:103D30009B850E94E19987FF04C0C886D986EA86E0
:103D4000FB86C0902502D0902602E0902702F090DA
:103D50002802A7019601688579858A859B850E943E
:103D6000A3A0181624F4C886D986EA86FB86DF91BC
:103D7000CF91FF90EF90DF90CF9008950C94761440
:103D80005F9A8091550C8E7F8093550C8A9A809112
:103D9000550C8D7F8093550C809108018095817022
:103DA000809306018091550C8B7F8093550C129A5D
:103DB0000895CF93DF93C7E7DBE020E030E0A9016F
:103DC000688179818A819B810E94E19981111FC05C
:103DD00020E030E0A9016C817D818E819F810E946D
:103DE000E199811114C020E030E0A901688579854E
:103DF0008A859B850E94E199811109C02C968BE0F0
:103E0000CB39D807D1F680E0DF91CF91089581E0DA
:103E1000FBCF0F931F93CF93DF9394E0899FE00133
:103E200011248E010D5C134FFE01E95DF34FDE019D
:103E3000A255B44F2D913D914D915C91608171815E
:103E4000828193810E94439EF80160837183828303
:103E50009383FE01E555FC4F85919591A591B49111
:103E6000FE01E15CF34F80839183A283B383FE0163
:103E7000E954FC4F85919591A591B491C35EDD4FB6
:103E800088839983AA83BB83DF91CF911F910F9180
:103E9000089590913103E92FF0E0E658F34F8083C5
:103EA0009F5F943040F49093310380910B0E8F5FAD
:103EB00080930B0E089510923103F7CF2FEB280F4C
:103EC0002A3108F042C0E22FF0E08091730B90910C
:103ED000740BA091750BB091760B04C0B695A795A5
:103EE000979587952A95D2F780FD02C08170089535
:103EF000E75AF44FE081EE2329F180910C0E909166
:103F00000D0EE80FF92FF11D808190ED980F9A307A
:103F100030F08E3251F4818180538A3098F4F093DE
:103F2000160CE093150C81E008958D3211F08B3260
:103F300049F4818190ED980F9A3088F38E3211F414
:103F40008281EACFF0E0E0E0EACF80E008950E94CD
:103F50005E1F882341F081E02091150C3091160CF2
:103F6000232B09F480E0089580E1EFE1FEE0AEE06C
:103F7000BEE001900D928A95E1F708959091C000FE
:103F800095FFFCCF8093C6000895FF920F931F9377
:103F9000CF93DF9380912F0E082F0270182F14708B
:103FA000982F9170F92E80FD11C0C0EFDEE1FE0167
:103FB00084912196811115C0CAEEDEE1FE01849143
:103FC0002196882389F00E94BE1FF8CF002369F351
:103FD00080E0112351F3DF91CF911F910F91FF905A
:103FE00008950E94BE1FE3CFF1100AC0C8EEDEE1C3
:103FF000FE0184912196882319F00E94BE1FF8CFFC
:1040000001110AC0C6EEDEE1FE01849121968823EB
:1040100019F00E94BE1FF8CF11110AC0C4EEDEE1F4
:10402000FE0184912196882319F00E94BE1FF8CFCB
:10403000CCEDDEE1FE0184912196882319F00E94E7
:10404000BE1FF8CF81E0C7CFCF93DF93E82FEE0FED
:10405000FF0BEC5FF64EC591D491FE018491219641
:10406000882319F00E94BE1FF8CFDF91CF910895E9
:10407000CF93DF930E942420C6E4D9E1FE0184910E
:104080002196882319F00E94BE1FF8CFDF91CF91AF
:1040900008951F93CF93DF93162F0E942420C5E22B
:1040A000D9E1FE0184912196882319F00E94BE1F58
:1040B000F8CFCFE1D9E1112311F0CAE1D9E1FE0136
:1040C00084912196882319F00E94BE1FF8CF8AE0C0
:1040D000DF91CF911F910C94BE1F0F931F93CF932D
:1040E000DF93162F072FEC01FE0184912196811199
:1040F00008C0C12FD02F8991882331F00E94BE1FA4
:10410000FACF0E94BE1FF0CFDF91CF911F910F9188
:104110000895CF93DF93C0EFDEE1FE0184912196F5
:10412000882319F00E94BE1FF8CF60910C0E709189
:104130000D0E89EC9EE10E946D2082E20E94BE1F5E
:104140008AE0DF91CF910C94BE1FCF93DF93CDE433
:10415000DAE0FE018491219681110AC0C5E4DAE01B
:10416000FE0184912196882331F00E94BE1FF8CF72
:104170000E94BE1FEECF659908C0C8EFD2E08991BA
:10418000882331F00E94BE1FFACFCEEED2E0F7CFE7
:104190008AE00E94BE1FCDE3DAE0FE018491219601
:1041A000882319F00E94BE1FF8CF80910301C8EF49
:1041B000D2E080FF02C0CEEED2E08991882319F0D0
:1041C0000E94BE1FFACF8AE00E94BE1FC5E3DAE05C
:1041D000FE0184912196882319F00E94BE1FF8CF1A
:1041E0004A9B08C0CEEED2E08991882331F00E942C
:1041F000BE1FFACFC8EFD2E0F7CF8AE0DF91CF91B0
:104200000C94BE1FCF93DF93C4E1D8E0FE018491EC
:104210002196882319F00E94BE1FF8CFDF91CF911D
:104220000895CF93DF938F389240A1F0CDE4DFE182
:10423000FE018491219681110AC0C5EED6E0FE01EF
:1042400084912196882351F00E94BE1FF8CF0E94CE
:10425000BE1FEECF80E0DF91CF91089581E0FBCFCC
:10426000CF93DF93C8ECD6E0FE018491219688239A
:1042700019F00E94BE1FF8CF8AE0DF91CF910C9415
:10428000BE1FCF93DF93CDE4DFE1FE018491219641
:1042900081110AC0C2EDD3E0FE01849121968823EA
:1042A00031F00E94BE1FF8CF0E94BE1FEECFDF91FB
:1042B000CF910895CF93DF93C3ECD3E0FE018491B7
:1042C0002196882319F00E94BE1FF8CFDF91CF916D
:1042D00008958091290490912A042FEF3FEF9817B9
:1042E00051F0E92FF0E0E755FC4F208130E09F5F6F
:1042F0009F7790932A04C90108951092660C10923A
:10430000670C1092680C1092690CE7E7FBE084E2FE
:10431000DF011D928A95E9F708950F931F93CF93BC
:10432000DF93EC012E893F89488D598D20642E8BB7
:104330003F8B488F598F60E80E94CE122E893F89AB
:10434000488D598D20682E8B3F8B488F598F60E8A0
:10435000CE010E94CE122E893F89488D598D2E7F25
:104360002E8B3F8B488F598F60E8CE010E94CE1272
:1043700060E273E0CE010E9476148E01025C1F4F52
:10438000F8012081318142815381507F5460208324
:104390003183428353836CEECE010E94CE12F8012A
:1043A00020813181428153813F774E7F3068208365
:1043B0003183428353836CEECE010E94CE12F8010A
:1043C0002081318142815381207F25602083318388
:1043D000428353836CEECE010E94CE12F8012081FD
:1043E00031814281538150612083318342835383E1
:1043F0006CEECE010E94CE1280E890E0A0E0B0E02A
:104400008AAB9BABACABBDAB20E830E040E050E00A
:1044100061E9CE010E94CE12F801208131814281F2
:1044200053812F78206220833183428353836CEE43
:10443000CE010E94CE12F801208131814281538148
:104440002F77387F20683260208331834283538303
:104450006CEECE010E94CE120C5F1F4FF80120813E
:104460003181428153815F70506C2083318342835C
:10447000538360EFCE010E94CE12F801208131817A
:1044800042815381507F586020833183428353831C
:1044900060EFCE010E94CE12F8012081318142816D
:1044A00053814860208331834283538360EFCE0180
:1044B0000E94CE12F80120813181428153814460F3
:1044C000208331834283538360EFCE010E94CE125A
:1044D000F80120813181428153814C7F41602083EA
:1044E00031834283538360EFCE010E94CE12F801E4
:1044F000208131814281538133273E602083318383
:104500004283538360EFCE010E94CE12F8012081D6
:104510003181428153812227246220833183428367
:10452000538360EFCE010E94CE122E893F89488DC1
:10453000598D2B7F2E8B3F8B488F598F60E8CE0192
:104540000E94CE1287E090E0A0E0B0E08A8F9B8FBF
:10455000AC8FBD8F27E030E040E050E061E8CE0155
:104560000E94CE1268EC70E080E090E0DF91CF9185
:104570001F910F910C949B1281E39FE00E948D216B
:1045800084EE9EE00E948D2187E99EE00E948D21AD
:104590008AE49EE00C948D218091F10A9091F20AB8
:1045A0000E9447176093460E7093470E8093480E03
:1045B0009093490E8091ED0A9091EE0A0E941E1888
:1045C0006093080B7093090B80930A0B90930B0B6D
:1045D000A8951092F30A0895CF92DF92EF92FF927E
:1045E0000F931F93CF93DF93CDB7DEB7A0970FB68E
:1045F000F894DEBF0FBECDBF611571058105910531
:1046000079F100E0C42ED12CF12CE12CA701960108
:104610000E94069E11E0100FE1E0F0E0EC0FFD1F9C
:10462000E00FF11D07FDFA956083B901CA01012F62
:10463000611571058105910549F7115010F1E1E00F
:10464000F0E0EC0FFD1FE10FF11D17FDFA959081D1
:1046500087E39A3008F480E3890F0E94BE1FEDCFF4
:1046600080E3A0960FB6F894DEBF0FBECDBFDF91FA
:10467000CF911F910F91FF90EF90DF90CF900C940E
:10468000BE1FA0960FB6F894DEBF0FBECDBFDF9160
:10469000CF911F910F91FF90EF90DF90CF900895F1
:1046A000CF92DF92EF92FF92CF93DF936A017B016B
:1046B000EC01FE0184912196882319F00E94BE1F0F
:1046C000F8CF4AE0C701B601DF91CF91FF90EF909C
:1046D000DF90CF900C94EC22CF92DF92EF92FF927A
:1046E0006B017C01F7FE0BC08DE20E94BE1FF094AF
:1046F000E094D094C094C11CD11CE11CF11C4AE090
:10470000C701B601FF90EF90DF90CF900C94EC22A0
:104710000F931F93CF93DF93EB018C01F8018491EA
:104720000F5F1F4F882319F00E94BE1FF7CFBE01F5
:10473000DD0F880B990BDF91CF911F910F910C9496
:104740006C23CF93DF93855B9F4FFC01C081D181A8
:10475000862F0E942420BE0189E696E00E948823CD
:104760008AE0DF91CF910C94BE1FCF93DF938091AD
:10477000290480932A04C3E9D4E0FE0184912196A0
:10478000882319F00E94BE1FF8CF6091320E7091FD
:10479000330E8091340E9091350E6F5F7F4F8F4FA7
:1047A0009F4F0E946C238AE00E94BE1FE0910A0E78
:1047B000F0E0E658F34F8081882321F0DF91CF911C
:1047C0000C943021DF91CF9108950F931F93CF93D5
:1047D000DF93182F092FCDE4DFE1FE0184912196AC
:1047E00081110AC0C12FD02FFE0184912196882308
:1047F00031F00E94BE1FF8CF0E94BE1FEECF609125
:10480000320E7091330E8091340E9091350E0E94CD
:104810006C238AE00E94BE1F0E94B5231092310EC5
:104820001092300EDF91CF911F910F910895FF925A
:104830000F931F93CF93DF93082FF92E162FCCE001
:10484000D4E0FE0184912196811111C0C02FDF2D8B
:10485000FE018491219681110DC0CAE0D4E0FE01D1
:1048600084912196882349F00E94BE1FF8CF0E94B0
:10487000BE1FE7CF0E94BE1FEBCF612F70E090E01C
:1048800080E00E946C238AE0DF91CF911F910F910D
:10489000FF900C94BE1F8F929F92AF92BF92CF92C7
:1048A000DF92EF92FF92CF936B017C01B42E20E058
:1048B00030E0A9010E94E19987FF07C08DE20E94C4
:1048C000BE1FF7FAF094F7F8F094C0E060E070E0F3
:1048D00080E09FE3CB1541F02DEC3CEC4CEC5DE32C
:1048E0000E94479ACF5FF6CF9B01AC01C701B6018A
:1048F0000E94439E6B017C010E94B69F4B015C01AC
:104900004AE00E94EC22CC2391F1C501B4010E943F
:10491000E6999B01AC01C701B6010E94429E6B0162
:104920007C018EE20E94BE1FC15008F120E030E001
:1049300040E251E4C701B6010E94479A4B015C0175
:104940000E94AF9F6B01770FEE08FF08C701B60109
:104950000E946C23C701B6010E94E8999B01AC013B
:10496000C501B4010E94429E6B017C01DDCFCF9155
:10497000FF90EF90DF90CF90BF90AF909F908F907F
:104980000895CF92DF92EF92FF92CF93DF936A0167
:104990007B01EC01FE0184912196882319F00E948D
:1049A000BE1FF8CF42E0C701B601DF91CF91FF9063
:1049B000EF90DF90CF900C944B24FF920F931F93B6
:1049C000CF93DF938C01EB01F42E80E20E94BE1F97
:1049D0008FEFF81609F184E50E94BE1F8AE30E945A
:1049E000BE1FF801608171818281938142E00E9443
:1049F0004B24488159816A817B8188EF98E10E942C
:104A0000C12462E070E080E090E0DF91CF911F91DF
:104A10000F91FF900C949B1282E4DECF0F931F93B3
:104A2000CF93DF9300D000D01F921F92CDB7DEB797
:104A30006091440E7091450E072E000C880B990B67
:104A40000E94E8996D837E838F8398878091460EBC
:104A50009091470EA091480EB091490E89839A8398
:104A6000AB83BC834DEFBE016B5F7F4FCE010196E0
:104A70000E94DD246091C40B7091C50B072E000CC1
:104A8000880B990B0E94E8996D837E838F839887AA
:104A90008091080B9091090BA0910A0BB0910B0B20
:104AA00089839A83AB83BC834FEFBE016B5F7F4FDB
:104AB000CE0101960E94DD2400E019E1F801849105
:104AC0000F5F1F4F882319F00E94BE1FF7CFE091A0
:104AD000780CF0E0EA5FF44F608170E090E080E0F5
:104AE0000E946C230BEF18E1F80184910F5F1F4FB8
:104AF000882319F00E94BE1FF7CF6091070B70E06A
:104B000090E080E00E946C2328960FB6F894DEBFF8
:104B10000FBECDBFDF91CF911F910F9108957F926E
:104B20008F929F92AF92BF92CF92DF92EF92FF92BD
:104B30000F931F93CF93DF93C5E8DAE0FE018491D2
:104B4000219681110AC0CAE7DAE0FE01849121961C
:104B5000882331F00E94BE1FF8CF0E94BE1FEECF07
:104B60006091660C7091670C8091680C9091690C53
:104B700045E00E944B24C7E6DAE0FE0184912196CD
:104B8000882319F00E94BE1FF8CFC12CD12C7601CA
:104B9000C9E0C15021F080E20E94BE1FFACFC701D8
:104BA000B6010E946C23FFEFCF1ADF0AEF0AFF0A5B
:104BB00083E0C816D104E104F10451F78AE00E94B1
:104BC000BE1FC7E7DBE0C12CD12C760180E20E943A
:104BD000BE1FC701B6010E946C238E0183E0782EB0
:104BE00080E20E94BE1FF80180809180A280B38085
:104BF000A5019401C501B4010E9435A1811135C000
:104C000020E030E0A901C501B4010E94A3A087FD06
:104C100003C08BE20E94BE1F45E0C501B4010E94A3
:104C20004B247A94045F1F4F7110DACF8AE00E9400
:104C3000BE1F8FEFC81AD80AE80AF80A249693E034
:104C4000C916D104E104F10409F68AE0DF91CF919D
:104C50001F910F91FF90EF90DF90CF90BF90AF909A
:104C60009F908F907F900C94BE1FB12C80E20E9489
:104C7000BE1FB3948DE3F8E0BF12F9CFD2CF8F926D
:104C80009F92AF92BF92CF92DF92EF92FF920F93DB
:104C90001F93CF93DF93C82F81110BC000EF1EE14C
:104CA000F80184910F5F1F4F882319F00E94BE1FE7
:104CB000F7CF0AE21AE0F80184910F5F1F4F8111CC
:104CC0000BC00BE118E0F80184910F5F1F4F8823A0
:104CD00031F00E94BE1FF7CF0E94BE1FECCF8AE0CA
:104CE0000E94BE1F8AE00E94BE1FC11136C000EFA5
:104CF0001EE17801F7018491FFEFEF1AFF0A81119D
:104D00000EC097E1E92E9AE0F92EF7018491FFEFAA
:104D1000EF1AFF0A882331F00E94BE1FF6CF0E94CF
:104D2000BE1FE8CF8091E80B81110EC08CE0E82E09
:104D30008AE0F82EF7018491FFEFEF1AFF0A88232B
:104D400031F00E94BE1FF6CF8AE00E94BE1FF8011C
:104D500084910F5F1F4F8111F8CF4091E40B509168
:104D6000E50B6091E60B7091E70B83E09AE00E94FF
:104D7000C1248AE00E94BE1F8091E80B811118C0F7
:104D8000C1110BC000EF1EE1F80184910F5F1F4FAE
:104D9000882319F00E94BE1FF7CF08EF19E0F80131
:104DA00084910F5F1F4F882319F00E94BE1FF7CF19
:104DB000C11124C000EF1EE17801F7018491FFEFDB
:104DC000EF1AFF0A81110EC0D7EEED2ED9E0FD2EAD
:104DD000F7018491FFEFEF1AFF0A882331F00E9458
:104DE000BE1FF6CF0E94BE1FE8CFF80184910F5F6F
:104DF0001F4F882319F00E94BE1FF7CF4091560C19
:104E00005091570C6091580C7091590C8FED99E0AE
:104E10000E94C12440915A0C50915B0C60915C0C33
:104E200070915D0C8CED99E00E94C12440915E0C64
:104E300050915F0C6091600C7091610C89ED99E06C
:104E40000E94C1244091620C5091630C6091640CEB
:104E50007091650C86ED99E00E94C1248AE00E9461
:104E6000BE1FC11124C000EF1EE17801F70184913B
:104E7000FFEFEF1AFF0A81110EC0B8EBEB2EB9E07D
:104E8000FB2EF7018491FFEFEF1AFF0A882331F020
:104E90000E94BE1FF6CF0E94BE1FE8CFF80184918A
:104EA0000F5F1F4F882319F00E94BE1FF7CF40915C
:104EB000F90B5091FA0B6091FB0B7091FC0B8FEA90
:104EC00099E00E94C1244091FD0B5091FE0B60912E
:104ED000FF0B7091000C8CEA99E00E94C124409174
:104EE000010C5091020C6091030C7091040C89EA42
:104EF00099E00E94C1244091050C5091060C6091EC
:104F0000070C7091080C86EA99E00E94C1248AE09F
:104F10000E94BE1FC11124C000EF1EE17801F701FD
:104F20008491FFEFEF1AFF0A81110EC0A4E8EA2E68
:104F3000A9E0FA2EF7018491FFEFEF1AFF0A882308
:104F400031F00E94BE1FF6CF0E94BE1FE8CFF801CD
:104F500084910F5F1F4F882319F00E94BE1FF7CF67
:104F60004091E90B5091EA0B6091EB0B7091EC0BC7
:104F70008BE799E00E9450234091ED0B5091EE0B8E
:104F80006091EF0B7091F00B88E799E00E9450233D
:104F90004091F10B5091F20B6091F30B7091F40B77
:104FA00085E799E00E9450234091F50B5091F60B54
:104FB0006091F70B7091F80B82E799E00E94502303
:104FC0008AE00E94BE1FC11124C000EF1EE17801DB
:104FD000F7018491FFEFEF1AFF0A81110EC0F8E28A
:104FE000EF2EF9E0FF2EF7018491FFEFEF1AFF0A91
:104FF000882331F00E94BE1FF6CF0E94BE1FE8CF6B
:10500000F80184910F5F1F4F882319F00E94BE1F83
:10501000F7CF4091110C5091120C6091130C7091CC
:10502000140C8FE199E00E94C1244091090C509129
:105030000A0C60910B0C70910C0C8CE199E00E94B1
:10504000C12440910D0C50910E0C60910F0C709189
:10505000100C89E199E00E94C1248AE00E94BE1FE1
:10506000C11132C000EF1EE17801F7018491FFEF1A
:10507000EF1AFF0A811119C0E1EDEE2EE8E0FE2ED5
:10508000F7018491FFEFEF1AFF0A811111C074EC50
:10509000E72E78E0F72EF7018491FFEFEF1AFF0A71
:1050A000882349F00E94BE1FF6CF0E94BE1FDDCFAD
:1050B0000E94BE1FE5CF8AE00E94BE1FF8018491C6
:1050C0000F5F1F4F8111F8CF4091230C5091240C9A
:1050D0006091250C7091260C8BEB98E00E94502378
:1050E00040911F0C5091200C6091210C7091220C6A
:1050F00088EB98E00E94C12440911B0C50911C0C3D
:1051000060911D0C70911E0C85EB98E00E94C124EB
:105110004091170C5091180C6091190C70911A0C59
:1051200082EB98E00E94C1248AE00E94BE1FC11158
:1051300024C000EF1EE17801F7018491FFEFEF1A20
:10514000FF0A81110EC064EAE62E68E0F62EF70130
:105150008491FFEFEF1AFF0A882331F00E94BE1FEF
:10516000F6CF0E94BE1FE8CFF80184910F5F1F4F5A
:10517000882319F00E94BE1FF7CF4091270C509151
:10518000280C6091290C70912A0C8BE998E00E9400
:10519000C12440912B0C50912C0C60912D0C7091DE
:1051A0002E0C88E998E00E94C12440912F0C509168
:1051B000300C6091310C7091320C85E998E00E94BE
:1051C000C1248AE00E94BE1FC11124C000EF1EE16D
:1051D0007801F7018491FFEFEF1AFF0A81110EC0E9
:1051E00051E8E52E58E0F52EF7018491FFEFEF1A14
:1051F000FF0A882331F00E94BE1FF6CF0E94BE1F17
:10520000E8CFF80184910F5F1F4F882319F00E94A7
:10521000BE1FF7CF6091790C70E088E798E00E949C
:1052200088238AE00E94BE1F0E94D91E882309F4A9
:1052300051C047E7C42E4BE0D42E01E010E05601E8
:10524000EE24E394F12CC1110EC020EF822E2EE14A
:10525000922EF4018491FFEF8F1A9F0A882319F090
:105260000E94BE1FF6CFB7018DE698E00E9488230A
:10527000B8018AE698E00E94882397E6892E98E094
:10528000992EF4018491FFEF8F1A9F0A882319F059
:105290000E94BE1FF6CFF5016081718182819381EA
:1052A00045E00E944B248AE00E94BE1FFFEFEF1AE8
:1052B000FF0A8CE0A80EB11C94E0E916F10409F095
:1052C000C2CF0F5F1F4FE4E0CE0ED11C043011059A
:1052D00009F0B5CFC11124C000EF1EE17801F7013C
:1052E0008491FFEFEF1AFF0A81110EC088E5E82EC6
:1052F00088E0F82EF7018491FFEFEF1AFF0A882368
:1053000031F00E94BE1FF6CF0E94BE1FE8CFF80109
:1053100084910F5F1F4F882319F00E94BE1FF7CFA3
:105320004091720C5091730C6091740C7091750CDB
:105330008FE498E00E94C1242CEA35EC47E25EE35A
:1053400060916E0C70916F0C8091700C9091710C4B
:105350000E943D9FAB01BC018CE498E00E94C124F7
:105360002CEA35EC47E25EE360916A0C70916B0CBD
:1053700080916C0C90916D0C0E94479AAB01BC011E
:1053800089E498E00E94C1248AE00E94BE1FC111F6
:105390001EC000EF1EE1E801FE01849121968111FB
:1053A0000AC0C0E3D8E0FE0184912196882331F041
:1053B0000E94BE1FF8CF0E94BE1FEECFF80184915D
:1053C0000F5F1F4F882319F00E94BE1FF7CF0E9466
:1053D000022160917C0F70917D0F8DE298E00E9418
:1053E000882360912F0F7091300F8AE298E00E941D
:1053F00088236091E20E7091E30E87E298E00E94AC
:1054000088238AE00E94BE1F0E9402216091950EAF
:105410007091960E81E298E00E9488238AE00E94B3
:10542000BE1F8AE0DF91CF911F910F91FF90EF9007
:10543000DF90CF90BF90AF909F908F900C94BE1F45
:105440004F925F926F927F928F929F92AF92BF9294
:10545000CF92DF92EF92FF92CF93DF93C7E0D4E039
:10546000FE0184912196882319F00E94BE1FF8CF77
:105470002091330C3091340C4091350C5091360C06
:1054800060911F0E7091200E8091210E9091220E3E
:105490000E94439E42E00E944B24C3E0D4E0FE0100
:1054A00084912196882319F00E94BE1FF8CF209185
:1054B000370C3091380C4091390C50913A0C609176
:1054C000230E7091240E8091250E9091260E0E943D
:1054D000439E42E00E944B24CFEFD3E0FE01849133
:1054E0002196882319F00E94BE1FF8CF20913B0C13
:1054F00030913C0C40913D0C50913E0C6091270E38
:105500007091280E8091290E90912A0E0E94439E40
:1055100042E00E944B24CBEFD3E0FE018491219620
:10552000882319F00E94BE1FF8CF60912B0E709156
:105530002C0E80912D0E90912E0E42E00E944B2455
:1055400080916F00982F927081FF05C080916F004D
:105550008D7F80936F0040909E0B50909F0B6090CA
:10556000A00B7090A10B8090A20B9090A30BA09029
:10557000A40BB090A50BC090A60BD090A70BE09009
:10558000A80BF090A90B992329F080916F008260FD
:1055900080936F00C1EFD3E0FE01849121968823B0
:1055A00019F00E94BE1FF8CFC301B2010E946C2304
:1055B000CDEED3E0FE0184912196882319F00E945C
:1055C000BE1FF8CFC501B4010E946C23C9EED3E021
:1055D000FE0184912196882319F00E94BE1FF8CF06
:1055E000C701B6010E946C238AE0DF91CF91FF9042
:1055F000EF90DF90CF90BF90AF909F908F907F9073
:105600006F905F904F900C94BE1F8091820488230E
:1056100041F040E150E063E370E087E894E00C94EF
:10562000C69D0895CF92DF92EF92FF928091BE0BBC
:105630008150823008F062C01092BE0B0E9441136C
:105640006093BA0B7093BB0B8093BC0B9093BD0B14
:105650008091890490918A04019690938A048093A2
:105660008904C0908304D0908404E0908504F09075
:1056700086040E94AD18AB01BC0140938304509393
:105680008404609385047093860480918B049091C8
:105690008C04A0918D04B0918E048C199D09AE09E3
:1056A000BF09840F951FA61FB71F80938B0490938B
:1056B0008C04A0938D04B0938E040E94AD18C0900A
:1056C0008F04D0909004E0909104F0909204C6165C
:1056D000D706E806F90650F40E94AD1860938F04CF
:1056E0007093900480939104909392040E94052BF0
:1056F00081E0FF90EF90DF90CF90089580E0F9CFA8
:105700001092EA0A1092450E1092440E0E944D1318
:105710001092C50B1092C40B0E94D6170E94122B38
:105720001092450E1092440E0E944D131092060BDB
:105730002C981092C50B1092C40B1092070B8091FD
:1057400002018072809300010895CDE4DFE1FE0143
:105750008491219681110AC0CDE2DFE1FE0184919E
:105760002196882331F00E94BE1FF8CF0E94BE1FF1
:10577000EECF0E94802B0E94C01EFFEF2BE48DE134
:10578000F15020408040E1F700C00000F8949FEF06
:10579000E4E3FCE09150E040F040E1F700C000009D
:1057A0000E94802BA895FECFFF920F931F93CF935B
:1057B000DF93182F062FF72E80913102882351F1A5
:1057C000CDE4DFE1FE0184912196811111C0C02F4B
:1057D000DF2DFE018491219681110DC0C1ECD7E12E
:1057E000FE0184912196882349F00E94BE1FF8CFC4
:1057F0000E94BE1FE7CF0E94BE1FEBCFCCEBD7E1CC
:10580000111113C060E070E0CB010E946C238AE0AC
:105810000E94BE1F8091C60A81110FC010923102F2
:1058200081E08093C60A0E94A52BFE0184912196F7
:10583000882381F30E94BE1FF8CFDF91CF911F9183
:105840000F91FF900C94802B3F924F925F926F923A
:105850007F928F929F92AF92BF92CF92DF92EF9200
:10586000FF920F931F93CF93DF936C014B015A016B
:10587000302EC1E0D0E0011102C0D0E0C0E0F9015B
:105880004080518062807380CC0FDD1FCC0FDD1F04
:105890008E010A5C114FA3019201F80160817181B0
:1058A000828193810E94E199882391F0F8014082DE
:1058B00051826282738211E020E030E0A901C301CD
:1058C000B2010E94A3A018160CF010E0F60110839C
:1058D000F60180818230C1F0833009F460C08130EC
:1058E000E1F5FE01EA5CF14F208131814281538173
:1058F000F50160817181828193810E94E19987FD28
:105900002CC082E0F6018083CA5CD14F20E030E0F9
:1059100040E751E4688179818A819B810E94429E9F
:105920009B01AC01F50160817181828193810E94AC
:10593000A3A087FD24C00E9441132B013C019701C5
:10594000A8EEB3E00E94339E460E571E681E791ED5
:10595000F4014082518262827382DF91CF911F9164
:105960000F91FF90EF90DF90CF90BF90AF909F90FE
:105970008F907F906F905F904F903F9008950E941E
:105980004113F4010081118122813381601B710B6D
:10599000820B930B97FDE1CF83E0F6018083FFEF4D
:1059A00046EF5EE13F1202C049E05FE16DE17FE159
:1059B000832DDF91CF911F910F91FF90EF90DF909A
:1059C000CF90BF90AF909F908F907F906F905F909F
:1059D0004F903F900C94D42B4F925F926F927F9296
:1059E0008F929F92AF92BF92CF92DF92EF92FF92EF
:1059F0000F931F93CF93DF93CDB7DEB760970FB6AA
:105A0000F894DEBF0FBECDBF8091F30A811117C09D
:105A100060960FB6F894DEBF0FBECDBFDF91CF9179
:105A20001F910F91FF90EF90DF90CF90BF90AF90BC
:105A30009F908F907F906F905F904F9008950E94FD
:105A4000CC220E9441134B015C016091440E709185
:105A5000450E072E000C880B990B0E94E89969836C
:105A60007A838B839C8320E5E22EF12C00E09E015B
:105A70002F5F3F4F46E45EE06FED7AE083EE9AE001
:105A80000E94242CC090460ED090470EE090480E05
:105A9000F090490E6091DD0A7091DE0A072E000C2D
:105AA000880B990B0E94E8999B01AC01C701B601D4
:105AB0000E94A3A018160CF01EC1609111027091F3
:105AC0001202072E000C880B990B0E94E8999B018B
:105AD000AC01C701B6010E94E19987FF0CC100919A
